{
  "contractName": "CadastroPaciente",
  "abi": [
    {
      "anonymous": false,
      "inputs": [
        {
          "indexed": false,
          "internalType": "string",
          "name": "cpf",
          "type": "string"
        },
        {
          "indexed": false,
          "internalType": "string",
          "name": "nome",
          "type": "string"
        },
        {
          "indexed": false,
          "internalType": "uint256",
          "name": "idade",
          "type": "uint256"
        }
      ],
      "name": "PacienteCadastrado",
      "type": "event"
    },
    {
      "anonymous": false,
      "inputs": [
        {
          "indexed": false,
          "internalType": "string",
          "name": "cpf",
          "type": "string"
        },
        {
          "indexed": false,
          "internalType": "string",
          "name": "nome",
          "type": "string"
        }
      ],
      "name": "PacienteConsultado",
      "type": "event"
    },
    {
      "inputs": [
        {
          "internalType": "string",
          "name": "_nome",
          "type": "string"
        },
        {
          "internalType": "string",
          "name": "_cpf",
          "type": "string"
        },
        {
          "internalType": "uint256",
          "name": "_idade",
          "type": "uint256"
        },
        {
          "internalType": "string",
          "name": "_endereco",
          "type": "string"
        }
      ],
      "name": "cadastrarPaciente",
      "outputs": [],
      "stateMutability": "nonpayable",
      "type": "function"
    },
    {
      "inputs": [
        {
          "internalType": "string",
          "name": "_cpf",
          "type": "string"
        }
      ],
      "name": "consultarPaciente",
      "outputs": [
        {
          "internalType": "string",
          "name": "nome",
          "type": "string"
        },
        {
          "internalType": "string",
          "name": "cpf",
          "type": "string"
        },
        {
          "internalType": "uint256",
          "name": "idade",
          "type": "uint256"
        },
        {
          "internalType": "string",
          "name": "endereco",
          "type": "string"
        }
      ],
      "stateMutability": "view",
      "type": "function",
      "constant": true
    },
    {
      "inputs": [
        {
          "internalType": "string",
          "name": "_cpf",
          "type": "string"
        }
      ],
      "name": "cpfJaCadastrado",
      "outputs": [
        {
          "internalType": "bool",
          "name": "",
          "type": "bool"
        }
      ],
      "stateMutability": "view",
      "type": "function",
      "constant": true
    },
    {
      "inputs": [],
      "name": "obterTodosCPFs",
      "outputs": [
        {
          "internalType": "string[]",
          "name": "",
          "type": "string[]"
        }
      ],
      "stateMutability": "view",
      "type": "function",
      "constant": true
    },
    {
      "inputs": [],
      "name": "totalPacientes",
      "outputs": [
        {
          "internalType": "uint256",
          "name": "",
          "type": "uint256"
        }
      ],
      "stateMutability": "view",
      "type": "function",
      "constant": true
    },
    {
      "inputs": [],
      "name": "obterTodosPacientes",
      "outputs": [
        {
          "internalType": "string[]",
          "name": "nomes",
          "type": "string[]"
        },
        {
          "internalType": "string[]",
          "name": "cpfs",
          "type": "string[]"
        },
        {
          "internalType": "uint256[]",
          "name": "idades",
          "type": "uint256[]"
        },
        {
          "internalType": "string[]",
          "name": "enderecos",
          "type": "string[]"
        }
      ],
      "stateMutability": "view",
      "type": "function",
      "constant": true
    }
  ],
  "bytecode": "0x608060405234801561001057600080fd5b506118a3806100206000396000f3fe608060405234801561001057600080fd5b50600436106100625760003560e01c80631e370be7146100675780633d576069146100885780634a13a076146100bb57806364c13821146100eb57806372c7104314610107578063e5a3bb4614610125575b600080fd5b61006f610143565b60405161007f9493929190610e35565b60405180910390f35b6100a2600480360381019061009d9190610fdf565b6105f5565b6040516100b29493929190611081565b60405180910390f35b6100d560048036038101906100d09190610fdf565b610897565b6040516100e291906110f6565b60405180910390f35b6101056004803603810190610100919061113d565b6108ce565b005b61010f610b35565b60405161011c91906111f8565b60405180910390f35b61012d610b42565b60405161013a9190611213565b60405180910390f35b606080606080600060018054905090508067ffffffffffffffff81111561016d5761016c610eb4565b5b6040519080825280602002602001820160405280156101a057816020015b606081526020019060019003908161018b5790505b5094508067ffffffffffffffff8111156101bd576101bc610eb4565b5b6040519080825280602002602001820160405280156101f057816020015b60608152602001906001900390816101db5790505b5093508067ffffffffffffffff81111561020d5761020c610eb4565b5b60405190808252806020026020018201604052801561023b5781602001602082028036833780820191505090505b5092508067ffffffffffffffff81111561025857610257610eb4565b5b60405190808252806020026020018201604052801561028b57816020015b60608152602001906001900390816102765790505b50915060005b818110156105ed576000600182815481106102af576102ae611235565b5b9060005260206000200180546102c490611293565b80601f01602080910402602001604051908101604052809291908181526020018280546102f090611293565b801561033d5780601f106103125761010080835404028352916020019161033d565b820191906000526020600020905b81548152906001019060200180831161032057829003601f168201915b50505050509050600080826040516103559190611300565b90815260200160405180910390206040518060a001604052908160008201805461037e90611293565b80601f01602080910402602001604051908101604052809291908181526020018280546103aa90611293565b80156103f75780601f106103cc576101008083540402835291602001916103f7565b820191906000526020600020905b8154815290600101906020018083116103da57829003601f168201915b5050505050815260200160018201805461041090611293565b80601f016020809104026020016040519081016040528092919081815260200182805461043c90611293565b80156104895780601f1061045e57610100808354040283529160200191610489565b820191906000526020600020905b81548152906001019060200180831161046c57829003601f168201915b50505050508152602001600282015481526020016003820180546104ac90611293565b80601f01602080910402602001604051908101604052809291908181526020018280546104d890611293565b80156105255780601f106104fa57610100808354040283529160200191610525565b820191906000526020600020905b81548152906001019060200180831161050857829003601f168201915b505050505081526020016004820160009054906101000a900460ff1615151515815250509050806000015188848151811061056357610562611235565b5b6020026020010181905250806020015187848151811061058657610585611235565b5b602002602001018190525080604001518684815181106105a9576105a8611235565b5b60200260200101818152505080606001518584815181106105cd576105cc611235565b5b6020026020010181905250505080806105e590611346565b915050610291565b505090919293565b606080600060608460008160405161060d9190611300565b908152602001604051809103902060040160009054906101000a900460ff1661066b576040517f08c379a0000000000000000000000000000000000000000000000000000000008152600401610662906113da565b60405180910390fd5b6000808760405161067c9190611300565b90815260200160405180910390206040518060a00160405290816000820180546106a590611293565b80601f01602080910402602001604051908101604052809291908181526020018280546106d190611293565b801561071e5780601f106106f35761010080835404028352916020019161071e565b820191906000526020600020905b81548152906001019060200180831161070157829003601f168201915b5050505050815260200160018201805461073790611293565b80601f016020809104026020016040519081016040528092919081815260200182805461076390611293565b80156107b05780601f10610785576101008083540402835291602001916107b0565b820191906000526020600020905b81548152906001019060200180831161079357829003601f168201915b50505050508152602001600282015481526020016003820180546107d390611293565b80601f01602080910402602001604051908101604052809291908181526020018280546107ff90611293565b801561084c5780601f106108215761010080835404028352916020019161084c565b820191906000526020600020905b81548152906001019060200180831161082f57829003601f168201915b505050505081526020016004820160009054906101000a900460ff16151515158152505090508060000151816020015182604001518360600151955095509550955050509193509193565b600080826040516108a89190611300565b908152602001604051809103902060040160009054906101000a900460ff169050919050565b6000845111610912576040517f08c379a000000000000000000000000000000000000000000000000000000000815260040161090990611446565b60405180910390fd5b6000835111610956576040517f08c379a000000000000000000000000000000000000000000000000000000000815260040161094d906114b2565b60405180910390fd5b600c8211610999576040517f08c379a00000000000000000000000000000000000000000000000000000000081526004016109909061151e565b60405180910390fd5b6000836040516109a99190611300565b908152602001604051809103902060040160009054906101000a900460ff1615610a08576040517f08c379a00000000000000000000000000000000000000000000000000000000081526004016109ff9061158a565b60405180910390fd5b6040518060a0016040528085815260200184815260200183815260200182815260200160011515815250600084604051610a429190611300565b90815260200160405180910390206000820151816000019081610a659190611756565b506020820151816001019081610a7b9190611756565b50604082015181600201556060820151816003019081610a9b9190611756565b5060808201518160040160006101000a81548160ff021916908315150217905550905050600183908060018154018082558091505060019003906000526020600020016000909190919091509081610af39190611756565b507f6eba1fe4dc300f564c41e1016a8675489c5e982c0be8273ae03238d6d4788dc0838584604051610b2793929190611828565b60405180910390a150505050565b6000600180549050905090565b60606001805480602002602001604051908101604052809291908181526020016000905b82821015610c12578382906000526020600020018054610b8590611293565b80601f0160208091040260200160405190810160405280929190818152602001828054610bb190611293565b8015610bfe5780601f10610bd357610100808354040283529160200191610bfe565b820191906000526020600020905b815481529060010190602001808311610be157829003601f168201915b505050505081526020019060010190610b66565b50505050905090565b600081519050919050565b600082825260208201905092915050565b6000819050602082019050919050565b600081519050919050565b600082825260208201905092915050565b60005b83811015610c81578082015181840152602081019050610c66565b60008484015250505050565b6000601f19601f8301169050919050565b6000610ca982610c47565b610cb38185610c52565b9350610cc3818560208601610c63565b610ccc81610c8d565b840191505092915050565b6000610ce38383610c9e565b905092915050565b6000602082019050919050565b6000610d0382610c1b565b610d0d8185610c26565b935083602082028501610d1f85610c37565b8060005b85811015610d5b5784840389528151610d3c8582610cd7565b9450610d4783610ceb565b925060208a01995050600181019050610d23565b50829750879550505050505092915050565b600081519050919050565b600082825260208201905092915050565b6000819050602082019050919050565b6000819050919050565b610dac81610d99565b82525050565b6000610dbe8383610da3565b60208301905092915050565b6000602082019050919050565b6000610de282610d6d565b610dec8185610d78565b9350610df783610d89565b8060005b83811015610e28578151610e0f8882610db2565b9750610e1a83610dca565b925050600181019050610dfb565b5085935050505092915050565b60006080820190508181036000830152610e4f8187610cf8565b90508181036020830152610e638186610cf8565b90508181036040830152610e778185610dd7565b90508181036060830152610e8b8184610cf8565b905095945050505050565b6000604051905090565b600080fd5b600080fd5b600080fd5b600080fd5b7f4e487b7100000000000000000000000000000000000000000000000000000000600052604160045260246000fd5b610eec82610c8d565b810181811067ffffffffffffffff82111715610f0b57610f0a610eb4565b5b80604052505050565b6000610f1e610e96565b9050610f2a8282610ee3565b919050565b600067ffffffffffffffff821115610f4a57610f49610eb4565b5b610f5382610c8d565b9050602081019050919050565b82818337600083830152505050565b6000610f82610f7d84610f2f565b610f14565b905082815260208101848484011115610f9e57610f9d610eaf565b5b610fa9848285610f60565b509392505050565b600082601f830112610fc657610fc5610eaa565b5b8135610fd6848260208601610f6f565b91505092915050565b600060208284031215610ff557610ff4610ea0565b5b600082013567ffffffffffffffff81111561101357611012610ea5565b5b61101f84828501610fb1565b91505092915050565b600082825260208201905092915050565b600061104482610c47565b61104e8185611028565b935061105e818560208601610c63565b61106781610c8d565b840191505092915050565b61107b81610d99565b82525050565b6000608082019050818103600083015261109b8187611039565b905081810360208301526110af8186611039565b90506110be6040830185611072565b81810360608301526110d08184611039565b905095945050505050565b60008115159050919050565b6110f0816110db565b82525050565b600060208201905061110b60008301846110e7565b92915050565b61111a81610d99565b811461112557600080fd5b50565b60008135905061113781611111565b92915050565b6000806000806080858703121561115757611156610ea0565b5b600085013567ffffffffffffffff81111561117557611174610ea5565b5b61118187828801610fb1565b945050602085013567ffffffffffffffff8111156111a2576111a1610ea5565b5b6111ae87828801610fb1565b93505060406111bf87828801611128565b925050606085013567ffffffffffffffff8111156111e0576111df610ea5565b5b6111ec87828801610fb1565b91505092959194509250565b600060208201905061120d6000830184611072565b92915050565b6000602082019050818103600083015261122d8184610cf8565b905092915050565b7f4e487b7100000000000000000000000000000000000000000000000000000000600052603260045260246000fd5b7f4e487b7100000000000000000000000000000000000000000000000000000000600052602260045260246000fd5b600060028204905060018216806112ab57607f821691505b6020821081036112be576112bd611264565b5b50919050565b600081905092915050565b60006112da82610c47565b6112e481856112c4565b93506112f4818560208601610c63565b80840191505092915050565b600061130c82846112cf565b915081905092915050565b7f4e487b7100000000000000000000000000000000000000000000000000000000600052601160045260246000fd5b600061135182610d99565b91507fffffffffffffffffffffffffffffffffffffffffffffffffffffffffffffffff820361138357611382611317565b5b600182019050919050565b7f50616369656e7465206e616f20656e636f6e747261646f000000000000000000600082015250565b60006113c4601783611028565b91506113cf8261138e565b602082019050919050565b600060208201905081810360008301526113f3816113b7565b9050919050565b7f4e6f6d65206e616f20706f64652065737461722076617a696f00000000000000600082015250565b6000611430601983611028565b915061143b826113fa565b602082019050919050565b6000602082019050818103600083015261145f81611423565b9050919050565b7f435046206e616f20706f64652065737461722076617a696f0000000000000000600082015250565b600061149c601883611028565b91506114a782611466565b602082019050919050565b600060208201905081810360008301526114cb8161148f565b9050919050565b7f4964616465206465766520736572206d61696f722071756520313220616e6f73600082015250565b6000611508602083611028565b9150611513826114d2565b602082019050919050565b60006020820190508181036000830152611537816114fb565b9050919050565b7f435046206a61206361646173747261646f000000000000000000000000000000600082015250565b6000611574601183611028565b915061157f8261153e565b602082019050919050565b600060208201905081810360008301526115a381611567565b9050919050565b60008190508160005260206000209050919050565b60006020601f8301049050919050565b600082821b905092915050565b60006008830261160c7fffffffffffffffffffffffffffffffffffffffffffffffffffffffffffffffff826115cf565b61161686836115cf565b95508019841693508086168417925050509392505050565b6000819050919050565b600061165361164e61164984610d99565b61162e565b610d99565b9050919050565b6000819050919050565b61166d83611638565b6116816116798261165a565b8484546115dc565b825550505050565b600090565b611696611689565b6116a1818484611664565b505050565b5b818110156116c5576116ba60008261168e565b6001810190506116a7565b5050565b601f82111561170a576116db816115aa565b6116e4846115bf565b810160208510156116f3578190505b6117076116ff856115bf565b8301826116a6565b50505b505050565b600082821c905092915050565b600061172d6000198460080261170f565b1980831691505092915050565b6000611746838361171c565b9150826002028217905092915050565b61175f82610c47565b67ffffffffffffffff81111561177857611777610eb4565b5b6117828254611293565b61178d8282856116c9565b600060209050601f8311600181146117c057600084156117ae578287015190505b6117b8858261173a565b865550611820565b601f1984166117ce866115aa565b60005b828110156117f6578489015182556001820191506020850194506020810190506117d1565b86831015611813578489015161180f601f89168261171c565b8355505b6001600288020188555050505b505050505050565b600060608201905081810360008301526118428186611039565b905081810360208301526118568185611039565b90506118656040830184611072565b94935050505056fea26469706673582212206ee6eae123bf314ce005ce0abc24b8fdc1825f3e0052fb060e44c0fceda6cffb64736f6c63430008130033",
  "immutableReferences": {},
  "source": "\n// SPDX-License-Identifier: MIT\npragma solidity >=0.8.19;\n\ncontract CadastroPaciente {\n\n    // Estrutura do paciente\n    struct Paciente {\n        string nome;\n        string cpf;\n        uint256 idade;\n        string endereco;\n        bool existe; // Para verificar se o paciente foi cadastrado\n    }\n    \n    // Mapping para armazenar pacientes por CPF\n    mapping(string => Paciente) private pacientes;\n    \n    // Array para armazenar todos os CPFs cadastrados\n    string[] private cpfsCadastrados;\n    \n    // Eventos\n    event PacienteCadastrado(string cpf, string nome, uint256 idade);\n    event PacienteConsultado(string cpf, string nome);\n    \n    // Modificador para validar se o paciente existe\n    modifier pacienteExiste(string memory _cpf) {\n        require(pacientes[_cpf].existe, \"Paciente nao encontrado\");\n        _;\n    }\n    \n    // Funo para cadastrar um novo paciente\n    function cadastrarPaciente(\n        string memory _nome,\n        string memory _cpf,\n        uint256 _idade,\n        string memory _endereco\n    ) public {\n        // Validaes obrigatrias\n        require(bytes(_nome).length > 0, \"Nome nao pode estar vazio\");\n        require(bytes(_cpf).length > 0, \"CPF nao pode estar vazio\");\n        require(_idade > 12, \"Idade deve ser maior que 12 anos\");\n        require(!pacientes[_cpf].existe, \"CPF ja cadastrado\");\n        \n        // Criar o paciente\n        pacientes[_cpf] = Paciente({\n            nome: _nome,\n            cpf: _cpf,\n            idade: _idade,\n            endereco: _endereco,\n            existe: true\n        });\n        \n        // Adicionar CPF  lista de cadastrados\n        cpfsCadastrados.push(_cpf);\n        \n        // Emitir evento\n        emit PacienteCadastrado(_cpf, _nome, _idade);\n    }\n    \n    // Funo para consultar um paciente pelo CPF\n    function consultarPaciente(string memory _cpf) \n        public \n        view \n        pacienteExiste(_cpf) \n        returns (\n            string memory nome,\n            string memory cpf,\n            uint256 idade,\n            string memory endereco\n        ) \n    {\n        Paciente memory paciente = pacientes[_cpf];\n        return (\n            paciente.nome,\n            paciente.cpf,\n            paciente.idade,\n            paciente.endereco\n        );\n    }\n    \n    // Funo para verificar se um CPF j est cadastrado\n    function cpfJaCadastrado(string memory _cpf) public view returns (bool) {\n        return pacientes[_cpf].existe;\n    }\n    \n    // Funo para obter todos os CPFs cadastrados\n    function obterTodosCPFs() public view returns (string[] memory) {\n        return cpfsCadastrados;\n    }\n\n    // Funo para obter o nmero total de pacientes cadastrados\n    function totalPacientes() public view returns (uint256) {\n        return cpfsCadastrados.length;\n    }\n    \n    // Funo para obter todos os pacientes (para listagem no frontend)\n    function obterTodosPacientes() \n        public \n        view \n        returns (\n            string[] memory nomes,\n            string[] memory cpfs,\n            uint256[] memory idades,\n            string[] memory enderecos\n        ) \n    {\n        uint256 total = cpfsCadastrados.length;\n        \n        nomes = new string[](total);\n        cpfs = new string[](total);\n        idades = new uint256[](total);\n        enderecos = new string[](total);\n        \n        for (uint256 i = 0; i < total; i++) {\n            string memory cpf = cpfsCadastrados[i];\n            Paciente memory paciente = pacientes[cpf];\n            \n            nomes[i] = paciente.nome;\n            cpfs[i] = paciente.cpf;\n            idades[i] = paciente.idade;\n            enderecos[i] = paciente.endereco;\n        }\n        \n        return (nomes, cpfs, idades, enderecos);\n    }\n}",
  "sourcePath": "C:\\Blockchain\\contracts\\CadastroPaciente.sol",
  "compiler": {
    "name": "solc",
    "version": "0.8.19+commit.7dd6d404.Emscripten.clang"
  },
  "schemaVersion": "3.4.16",
  "updatedAt": "2025-09-24T13:37:20.620Z",
  "networkType": "ethereum",
  "devdoc": {
    "kind": "dev",
    "methods": {},
    "version": 1
  },
  "userdoc": {
    "kind": "user",
    "methods": {},
    "version": 1
  }
}